{"abi":[{"type":"constructor","inputs":[{"name":"pools","type":"address[]","internalType":"address[]"},{"name":"dexes","type":"address[]","internalType":"address[]"},{"name":"dexIsUniV3","type":"bool[]","internalType":"bool[]"},{"name":"weth","type":"address","internalType":"address"},{"name":"wethInPoolThreshold","type":"uint256","internalType":"uint256"}],"stateMutability":"nonpayable"},{"type":"function","name":"tokenToWethPrices","inputs":[{"name":"","type":"address","internalType":"address"}],"outputs":[{"name":"","type":"uint128","internalType":"uint128"}],"stateMutability":"view"}],"bytecode":{"object":"0x608060405234801561001057600080fd5b506040516124b23803806124b283398181016040528101906100329190611a1d565b6000855167ffffffffffffffff81111561004f5761004e61174b565b5b60405190808252806020026020018201604052801561007d5781602001602082028036833780820191505090505b50905060005b865181101561037f576100b58782815181106100a2576100a1611aec565b5b60200260200101516103ae60201b60201c565b156100e05760008282815181106100cf576100ce611aec565b5b602002602001018181525050610374565b6101098782815181106100f6576100f5611aec565b5b602002602001015161045f60201b60201c565b61035157600087828151811061012257610121611aec565b5b602002602001015173ffffffffffffffffffffffffffffffffffffffff16630dfe16816040518163ffffffff1660e01b8152600401602060405180830381865afa158015610174573d6000803e3d6000fd5b505050506040513d601f19601f820116820180604052508101906101989190611b1b565b905060008883815181106101af576101ae611aec565b5b602002602001015173ffffffffffffffffffffffffffffffffffffffff1663d21220a76040518163ffffffff1660e01b8152600401602060405180830381865afa158015610201573d6000803e3d6000fd5b505050506040513d601f19601f820116820180604052508101906102259190611b1b565b90506102368261045f60201b60201c565b15801561024f575061024d8161045f60201b60201c565b155b15610328576000806102828b868151811061026d5761026c611aec565b5b6020026020010151858561049260201b60201c565b91509150600061029c858a858e8e8d61054160201b60201c565b905060006102b4858b858f8f8e61054160201b60201c565b9050600082141580156102c8575060008114155b156102fd5780826102d99190611b77565b8888815181106102ec576102eb611aec565b5b60200260200101818152505061031f565b600088888151811061031257610311611aec565b5b6020026020010181815250505b5050505061034a565b600084848151811061033d5761033c611aec565b5b6020026020010181815250505b5050610373565b600082828151811061036657610365611aec565b5b6020026020010181815250505b5b806001019050610083565b506000816040516020016103939190611c69565b60405160208183030381529060405290506020810180590381f35b60006103bf826106db60201b60201c565b6104555760008273ffffffffffffffffffffffffffffffffffffffff16631a6865026040518163ffffffff1660e01b8152600401602060405180830381865afa158015610410573d6000803e3d6000fd5b505050506040513d601f19601f820116820180604052508101906104349190611cd3565b6fffffffffffffffffffffffffffffffff1603610454576001905061045a565b5b600090505b919050565b6000808273ffffffffffffffffffffffffffffffffffffffff163b03610488576001905061048d565b600090505b919050565b6000806000806104a987878761071960201b60201c565b9150915061053382828773ffffffffffffffffffffffffffffffffffffffff168973ffffffffffffffffffffffffffffffffffffffff16106104eb57876104ed565b885b8873ffffffffffffffffffffffffffffffffffffffff168a73ffffffffffffffffffffffffffffffffffffffff16106105265789610528565b885b6108b560201b60201c565b935093505050935093915050565b60008573ffffffffffffffffffffffffffffffffffffffff168773ffffffffffffffffffffffffffffffffffffffff160361057e578490506106d1565b60008060008973ffffffffffffffffffffffffffffffffffffffff1673ffffffffffffffffffffffffffffffffffffffff16815260200190815260200160002060009054906101000a90046fffffffffffffffffffffffffffffffff1690506001816fffffffffffffffffffffffffffffffff16036106015760009150506106d1565b6000816fffffffffffffffffffffffffffffffff16146106335761062b81876109b960201b60201c565b9150506106d1565b60005b85518110156106ca5760006106888a8a89858151811061065957610658611aec565b5b602002602001015189868151811061067457610673611aec565b5b602002602001015189610b0a60201b60201c565b90506000816fffffffffffffffffffffffffffffffff16146106be576106b481896109b960201b60201c565b93505050506106d1565b50806001019050610636565b5060009150505b9695505050505050565b6000807fddca3f43000000000000000000000000000000000000000000000000000000006000526000806004600080875af190508015915050919050565b6000808273ffffffffffffffffffffffffffffffffffffffff168473ffffffffffffffffffffffffffffffffffffffff1610610756578284610759565b83835b8094508195505050600080610773876106db60201b60201c565b1561081c576000808873ffffffffffffffffffffffffffffffffffffffff16630902f1ac6040518163ffffffff1660e01b8152600401606060405180830381865afa1580156107c6573d6000803e3d6000fd5b505050506040513d601f19601f820116820180604052508101906107ea9190611d82565b5091509150816dffffffffffffffffffffffffffff169350806dffffffffffffffffffffffffffff16925050506108a5565b60008061082f888a610ea660201b60201c565b91509150600080610846898c610ea660201b60201c565b915091508280156108545750805b156108a0578873ffffffffffffffffffffffffffffffffffffffff168a73ffffffffffffffffffffffffffffffffffffffff1610156108985783955081945061089f565b8394508195505b5b505050505b8181935093505050935093915050565b6000806000806108ca86610ffb60201b60201c565b915091506000806108e087610ffb60201b60201c565b915091508280156108ee5750805b156109ac5760128460ff1611156109285760128461090c9190611de2565b600a6109189190611f4a565b8a6109239190611fc4565b61094d565b8360126109359190611de2565b600a6109419190611f4a565b8a61094c9190611ff5565b5b955060128260ff161115610984576012826109689190611de2565b600a6109749190611f4a565b8961097f9190611fc4565b6109a9565b8160126109919190611de2565b600a61099d9190611f4a565b896109a89190611ff5565b5b94505b5050505094509492505050565b6000808214806109db57506000836fffffffffffffffffffffffffffffffff16145b156109e95760009050610b04565b600060406fffffffffffffffffffffffffffffffff8416856fffffffffffffffffffffffffffffffff1602901c90506000608084901c856fffffffffffffffffffffffffffffffff1602905077ffffffffffffffffffffffffffffffffffffffffffffffff811115610a90576040517f08c379a0000000000000000000000000000000000000000000000000000000008152600401610a8790612094565b60405180910390fd5b604081901b9050817fffffffffffffffffffffffffffffffffffffffffffffffffffffffffffffffff03811115610afc576040517f08c379a0000000000000000000000000000000000000000000000000000000008152600401610af390612100565b60405180910390fd5b818101925050505b92915050565b60008215610ce257600060405180606001604052806101f461ffff168152602001610bb861ffff16815260200161271061ffff16815250905060005b6003811015610cdb5760008673ffffffffffffffffffffffffffffffffffffffff16631698ee828973ffffffffffffffffffffffffffffffffffffffff168b73ffffffffffffffffffffffffffffffffffffffff1610610ba65789610ba8565b8a5b8a73ffffffffffffffffffffffffffffffffffffffff168c73ffffffffffffffffffffffffffffffffffffffff1610610be1578b610be3565b8a5b868660038110610bf657610bf5611aec565b5b60200201516040518463ffffffff1660e01b8152600401610c1993929190612187565b602060405180830381865afa158015610c36573d6000803e3d6000fd5b505050506040513d601f19601f82011682018060405250810190610c5a9190611b1b565b9050600073ffffffffffffffffffffffffffffffffffffffff168173ffffffffffffffffffffffffffffffffffffffff1614610ccf576000610ca5878b8b858a61116a60201b60201c565b90506000816fffffffffffffffffffffffffffffffff1614610ccd5780945050505050610e9d565b505b50806001019050610b46565b5050610e22565b60008573ffffffffffffffffffffffffffffffffffffffff168773ffffffffffffffffffffffffffffffffffffffff1610905060008573ffffffffffffffffffffffffffffffffffffffff1663e6a4390583610d3e5788610d40565b895b84610d4b578a610d4d565b895b6040518363ffffffff1660e01b8152600401610d6a9291906121be565b602060405180830381865afa158015610d87573d6000803e3d6000fd5b505050506040513d601f19601f82011682018060405250810190610dab9190611b1b565b9050600073ffffffffffffffffffffffffffffffffffffffff168173ffffffffffffffffffffffffffffffffffffffff1614610e1f576000610df6868a8a858961116a60201b60201c565b90506000816fffffffffffffffffffffffffffffffff1614610e1d57809350505050610e9d565b505b50505b60016000808873ffffffffffffffffffffffffffffffffffffffff1673ffffffffffffffffffffffffffffffffffffffff16815260200190815260200160002060006101000a8154816fffffffffffffffffffffffffffffffff02191690836fffffffffffffffffffffffffffffffff160217905550600090505b95945050505050565b6000806000808573ffffffffffffffffffffffffffffffffffffffff1685604051602401610ed491906121e7565b6040516020818303038152906040527f70a08231000000000000000000000000000000000000000000000000000000007bffffffffffffffffffffffffffffffffffffffffffffffffffffffff19166020820180517bffffffffffffffffffffffffffffffffffffffffffffffffffffffff8381831617835250505050604051610f5e9190612273565b6000604051808303816000865af19150503d8060008114610f9b576040519150601f19603f3d011682016040523d82523d6000602084013e610fa0565b606091505b50915091508115610fea5760006020825103610fdb5781806020019051810190610fca919061228a565b905080600194509450505050610ff4565b60008094509450505050610ff4565b6000809350935050505b9250929050565b6000806000808473ffffffffffffffffffffffffffffffffffffffff16614e206040516024016040516020818303038152906040527f313ce567000000000000000000000000000000000000000000000000000000007bffffffffffffffffffffffffffffffffffffffffffffffffffffffff19166020820180517bffffffffffffffffffffffffffffffffffffffffffffffffffffffff83818316178352505050506040516110ab9190612273565b60006040518083038160008787f1925050503d80600081146110e9576040519150601f19603f3d011682016040523d82523d6000602084013e6110ee565b606091505b5091509150811561115b576000602082510361114c5781806020019051810190611118919061228a565b90506000811480611129575060ff81115b1561113d5760008094509450505050611165565b80600194509450505050611165565b60008094509450505050611165565b6000809350935050505b915091565b6000808473ffffffffffffffffffffffffffffffffffffffff168673ffffffffffffffffffffffffffffffffffffffff1610905086611220576000806111b786898961049260201b60201c565b9150915082156111da57848110156111d5576000935050505061132a565b6111ef565b848210156111ee576000935050505061132a565b5b611217836111fd57826111ff565b815b8461120a578261120c565b835b61133360201b60201c565b935050506112b3565b60008473ffffffffffffffffffffffffffffffffffffffff16633850c7bd6040518163ffffffff1660e01b815260040160e060405180830381865afa15801561126d573d6000803e3d6000fd5b505050506040513d601f19601f820116820180604052508101906112919190612374565b505050505050905060406112ad82848a8a61152060201b60201c565b901c9250505b816000808873ffffffffffffffffffffffffffffffffffffffff1673ffffffffffffffffffffffffffffffffffffffff16815260200190815260200160002060006101000a8154816fffffffffffffffffffffffffffffffff02191690836fffffffffffffffffffffffffffffffff160217905550505b95945050505050565b6000808203611345576000905061151a565b600077ffffffffffffffffffffffffffffffffffffffffffffffff84116113825782604085901b8161137a57611379611f95565b5b0490506114f3565b600060c09050600060c086901c905064010000000081106113ab57602081901c90506020820191505b6201000081106113c357601081901c90506010820191505b61010081106113da57600881901c90506008820191505b601081106113f057600481901c90506004820191505b6004811061140657600281901c90506002820191505b60028110611415576001820191505b600160bf830360018703901c018260ff0387901b8161143757611436611f95565b5b0492506fffffffffffffffffffffffffffffffff83111561145e576000935050505061151a565b6000608086901c8402905060006fffffffffffffffffffffffffffffffff871685029050600060c089901c9050600060408a901b9050828110156114a3576001820391505b8281039050608084901b9250828110156114be576001820391505b8281039050608084901c82146114d7576114d6612416565b5b8881816114e7576114e6611f95565b5b04870196505050505050505b6fffffffffffffffffffffffffffffffff81111561151557600091505061151a565b809150505b92915050565b6000808573ffffffffffffffffffffffffffffffffffffffff16036115485760009050611719565b60008061155a85610ffb60201b60201c565b9150915060008061157086610ffb60201b60201c565b9150915082801561157e5750805b61158f576000945050505050611719565b600082850390506000808260000b126115c9578160ff16600a0a60028c73ffffffffffffffffffffffffffffffffffffffff160a026115fd565b8160000360ff16600a0a60028c73ffffffffffffffffffffffffffffffffffffffff160a816115fb576115fa611f95565b5b045b905060008a61165d576c0100000000000000000000000060808161162457611623611f95565b5b0482901b7fffffffffffffffffffffffffffffffffffffffffffffffffffffffffffffffff8161165757611656611f95565b5b04611680565b6c0100000000000000000000000060808161167b5761167a611f95565b5b0482901b5b90508a61168d57806116ac565b6c0100000000000000000000000081816116aa576116a9611f95565b5b045b97507fffffffffffffffffffffffffffffffffffffffffffffffffffffffffffffffff881115611711576040517f08c379a000000000000000000000000000000000000000000000000000000000815260040161170890612491565b60405180910390fd5b505050505050505b949350505050565b6000604051905090565b600080fd5b600080fd5b600080fd5b6000601f19601f8301169050919050565b7f4e487b7100000000000000000000000000000000000000000000000000000000600052604160045260246000fd5b6117838261173a565b810181811067ffffffffffffffff821117156117a2576117a161174b565b5b80604052505050565b60006117b5611721565b90506117c1828261177a565b919050565b600067ffffffffffffffff8211156117e1576117e061174b565b5b602082029050602081019050919050565b600080fd5b600073ffffffffffffffffffffffffffffffffffffffff82169050919050565b6000611822826117f7565b9050919050565b61183281611817565b811461183d57600080fd5b50565b60008151905061184f81611829565b92915050565b6000611868611863846117c6565b6117ab565b9050808382526020820190506020840283018581111561188b5761188a6117f2565b5b835b818110156118b457806118a08882611840565b84526020840193505060208101905061188d565b5050509392505050565b600082601f8301126118d3576118d2611735565b5b81516118e3848260208601611855565b91505092915050565b600067ffffffffffffffff8211156119075761190661174b565b5b602082029050602081019050919050565b60008115159050919050565b61192d81611918565b811461193857600080fd5b50565b60008151905061194a81611924565b92915050565b600061196361195e846118ec565b6117ab565b90508083825260208201905060208402830185811115611986576119856117f2565b5b835b818110156119af578061199b888261193b565b845260208401935050602081019050611988565b5050509392505050565b600082601f8301126119ce576119cd611735565b5b81516119de848260208601611950565b91505092915050565b6000819050919050565b6119fa816119e7565b8114611a0557600080fd5b50565b600081519050611a17816119f1565b92915050565b600080600080600060a08688031215611a3957611a3861172b565b5b600086015167ffffffffffffffff811115611a5757611a56611730565b5b611a63888289016118be565b955050602086015167ffffffffffffffff811115611a8457611a83611730565b5b611a90888289016118be565b945050604086015167ffffffffffffffff811115611ab157611ab0611730565b5b611abd888289016119b9565b9350506060611ace88828901611840565b9250506080611adf88828901611a08565b9150509295509295909350565b7f4e487b7100000000000000000000000000000000000000000000000000000000600052603260045260246000fd5b600060208284031215611b3157611b3061172b565b5b6000611b3f84828501611840565b91505092915050565b7f4e487b7100000000000000000000000000000000000000000000000000000000600052601160045260246000fd5b6000611b82826119e7565b9150611b8d836119e7565b9250828201905080821115611ba557611ba4611b48565b5b92915050565b600081519050919050565b600082825260208201905092915050565b6000819050602082019050919050565b611be0816119e7565b82525050565b6000611bf28383611bd7565b60208301905092915050565b6000602082019050919050565b6000611c1682611bab565b611c208185611bb6565b9350611c2b83611bc7565b8060005b83811015611c5c578151611c438882611be6565b9750611c4e83611bfe565b925050600181019050611c2f565b5085935050505092915050565b60006020820190508181036000830152611c838184611c0b565b905092915050565b60006fffffffffffffffffffffffffffffffff82169050919050565b611cb081611c8b565b8114611cbb57600080fd5b50565b600081519050611ccd81611ca7565b92915050565b600060208284031215611ce957611ce861172b565b5b6000611cf784828501611cbe565b91505092915050565b60006dffffffffffffffffffffffffffff82169050919050565b611d2381611d00565b8114611d2e57600080fd5b50565b600081519050611d4081611d1a565b92915050565b600063ffffffff82169050919050565b611d5f81611d46565b8114611d6a57600080fd5b50565b600081519050611d7c81611d56565b92915050565b600080600060608486031215611d9b57611d9a61172b565b5b6000611da986828701611d31565b9350506020611dba86828701611d31565b9250506040611dcb86828701611d6d565b9150509250925092565b600060ff82169050919050565b6000611ded82611dd5565b9150611df883611dd5565b9250828203905060ff811115611e1157611e10611b48565b5b92915050565b60008160011c9050919050565b6000808291508390505b6001851115611e6e57808604811115611e4a57611e49611b48565b5b6001851615611e595780820291505b8081029050611e6785611e17565b9450611e2e565b94509492505050565b600082611e875760019050611f43565b81611e955760009050611f43565b8160018114611eab5760028114611eb557611ee4565b6001915050611f43565b60ff841115611ec757611ec6611b48565b5b8360020a915084821115611ede57611edd611b48565b5b50611f43565b5060208310610133831016604e8410600b8410161715611f195782820a905083811115611f1457611f13611b48565b5b611f43565b611f268484846001611e24565b92509050818404811115611f3d57611f3c611b48565b5b81810290505b9392505050565b6000611f55826119e7565b9150611f6083611dd5565b9250611f8d7fffffffffffffffffffffffffffffffffffffffffffffffffffffffffffffffff8484611e77565b905092915050565b7f4e487b7100000000000000000000000000000000000000000000000000000000600052601260045260246000fd5b6000611fcf826119e7565b9150611fda836119e7565b925082611fea57611fe9611f95565b5b828204905092915050565b6000612000826119e7565b915061200b836119e7565b9250828202612019816119e7565b915082820484148315176120305761202f611b48565b5b5092915050565b600082825260208201905092915050565b7f6f766572666c6f772d3020696e206d756c363475000000000000000000000000600082015250565b600061207e601483612037565b915061208982612048565b602082019050919050565b600060208201905081810360008301526120ad81612071565b9050919050565b7f6f766572666c6f772d3120696e206d756c363475000000000000000000000000600082015250565b60006120ea601483612037565b91506120f5826120b4565b602082019050919050565b60006020820190508181036000830152612119816120dd565b9050919050565b61212981611817565b82525050565b600061ffff82169050919050565b600062ffffff82169050919050565b6000819050919050565b600061217161216c6121678461212f565b61214c565b61213d565b9050919050565b61218181612156565b82525050565b600060608201905061219c6000830186612120565b6121a96020830185612120565b6121b66040830184612178565b949350505050565b60006040820190506121d36000830185612120565b6121e06020830184612120565b9392505050565b60006020820190506121fc6000830184612120565b92915050565b600081519050919050565b600081905092915050565b60005b8381101561223657808201518184015260208101905061221b565b60008484015250505050565b600061224d82612202565b612257818561220d565b9350612267818560208601612218565b80840191505092915050565b600061227f8284612242565b915081905092915050565b6000602082840312156122a05761229f61172b565b5b60006122ae84828501611a08565b91505092915050565b6122c0816117f7565b81146122cb57600080fd5b50565b6000815190506122dd816122b7565b92915050565b60008160020b9050919050565b6122f9816122e3565b811461230457600080fd5b50565b600081519050612316816122f0565b92915050565b6123258161212f565b811461233057600080fd5b50565b6000815190506123428161231c565b92915050565b61235181611dd5565b811461235c57600080fd5b50565b60008151905061236e81612348565b92915050565b600080600080600080600060e0888a0312156123935761239261172b565b5b60006123a18a828b016122ce565b97505060206123b28a828b01612307565b96505060406123c38a828b01612333565b95505060606123d48a828b01612333565b94505060806123e58a828b01612333565b93505060a06123f68a828b0161235f565b92505060c06124078a828b0161193b565b91505092959891949750929550565b7f4e487b7100000000000000000000000000000000000000000000000000000000600052600160045260246000fd5b7f4f766572666c6f77000000000000000000000000000000000000000000000000600082015250565b600061247b600883612037565b915061248682612445565b602082019050919050565b600060208201905081810360008301526124aa8161246e565b905091905056fe","linkReferences":{}},"deployedBytecode":{"object":"0x608060405234801561001057600080fd5b506004361061002b5760003560e01c80630ed45c8e14610030575b600080fd5b61004a600480360381019061004591906100f2565b610060565b604051610057919061014a565b60405180910390f35b60006020528060005260406000206000915054906101000a90046fffffffffffffffffffffffffffffffff1681565b600080fd5b600073ffffffffffffffffffffffffffffffffffffffff82169050919050565b60006100bf82610094565b9050919050565b6100cf816100b4565b81146100da57600080fd5b50565b6000813590506100ec816100c6565b92915050565b6000602082840312156101085761010761008f565b5b6000610116848285016100dd565b91505092915050565b60006fffffffffffffffffffffffffffffffff82169050919050565b6101448161011f565b82525050565b600060208201905061015f600083018461013b565b9291505056fea2646970667358221220fec713851dbbc2987cde467e083e8211e7a35f797045cb2e30e2916bff3c1b4364736f6c634300081a0033","linkReferences":{}},"methodIdentifiers":{"tokenToWethPrices(address)":"0ed45c8e"},"id":0}