{"abi":[{"type":"function","name":"syncNames","inputs":[{"name":"token0","type":"address","internalType":"address"},{"name":"token1","type":"address","internalType":"address"}],"outputs":[{"name":"token0_name","type":"string","internalType":"string"},{"name":"token1_name","type":"string","internalType":"string"}],"stateMutability":"view"}],"bytecode":{"object":"0x6080604052348015600f57600080fd5b50610d718061001f6000396000f3fe608060405234801561001057600080fd5b506004361061002b5760003560e01c80633cfaefd914610030575b600080fd5b61004a600480360381019061004591906105ba565b610061565b60405161005892919061068a565b60405180910390f35b60608061006d84610081565b915061007883610081565b90509250929050565b60608173ffffffffffffffffffffffffffffffffffffffff166395d89b416040518163ffffffff1660e01b8152600401600060405180830381865afa9250505080156100f057506040513d6000823e3d601f19601f820116820180604052508101906100ed91906107e7565b60015b6101a0578173ffffffffffffffffffffffffffffffffffffffff166395d89b416040518163ffffffff1660e01b8152600401602060405180830381865afa92505050801561015c57506040513d601f19601f820116820180604052508101906101599190610866565b60015b61018f57610169826101aa565b604051602001610179919061091b565b60405160208183030381529060405290506101a5565b61019881610367565b9150506101a5565b809150505b919050565b60606000602867ffffffffffffffff8111156101c9576101c86106cb565b5b6040519080825280601f01601f1916602001820160405280156101fb5781602001600182028036833780820191505090505b50905060005b601481101561035d5760008160136102199190610976565b600861022591906109aa565b60026102319190610b1f565b8573ffffffffffffffffffffffffffffffffffffffff166102529190610b99565b60f81b9050600060108260f81c6102699190610bd7565b60f81b905060008160f81c60106102809190610c08565b8360f81c61028e9190610c45565b60f81b905061029c82610502565b858560026102aa91906109aa565b815181106102bb576102ba610c7a565b5b60200101907effffffffffffffffffffffffffffffffffffffffffffffffffffffffffffff1916908160001a9053506102f381610502565b85600186600261030391906109aa565b61030d9190610ca9565b8151811061031e5761031d610c7a565b5b60200101907effffffffffffffffffffffffffffffffffffffffffffffffffffffffffffff1916908160001a9053505050508080600101915050610201565b5080915050919050565b606060005b60208160ff161080156103be5750600060f81b838260ff166020811061039557610394610c7a565b5b1a60f81b7effffffffffffffffffffffffffffffffffffffffffffffffffffffffffffff191614155b156103d65780806103ce90610cdd565b91505061036c565b60008160ff1667ffffffffffffffff8111156103f5576103f46106cb565b5b6040519080825280601f01601f1916602001820160405280156104275781602001600182028036833780820191505090505b509050600091505b60208260ff161080156104815750600060f81b848360ff166020811061045857610457610c7a565b5b1a60f81b7effffffffffffffffffffffffffffffffffffffffffffffffffffffffffffff191614155b156104f857838260ff166020811061049c5761049b610c7a565b5b1a60f81b818360ff16815181106104b6576104b5610c7a565b5b60200101907effffffffffffffffffffffffffffffffffffffffffffffffffffffffffffff1916908160001a90535081806104f090610cdd565b92505061042f565b8092505050919050565b6000600a8260f81c60ff16101561052d5760308260f81c6105239190610d06565b60f81b9050610543565b60578260f81c61053d9190610d06565b60f81b90505b919050565b6000604051905090565b600080fd5b600080fd5b600073ffffffffffffffffffffffffffffffffffffffff82169050919050565b60006105878261055c565b9050919050565b6105978161057c565b81146105a257600080fd5b50565b6000813590506105b48161058e565b92915050565b600080604083850312156105d1576105d0610552565b5b60006105df858286016105a5565b92505060206105f0858286016105a5565b9150509250929050565b600081519050919050565b600082825260208201905092915050565b60005b83811015610634578082015181840152602081019050610619565b60008484015250505050565b6000601f19601f8301169050919050565b600061065c826105fa565b6106668185610605565b9350610676818560208601610616565b61067f81610640565b840191505092915050565b600060408201905081810360008301526106a48185610651565b905081810360208301526106b88184610651565b90509392505050565b600080fd5b600080fd5b7f4e487b7100000000000000000000000000000000000000000000000000000000600052604160045260246000fd5b61070382610640565b810181811067ffffffffffffffff82111715610722576107216106cb565b5b80604052505050565b6000610735610548565b905061074182826106fa565b919050565b600067ffffffffffffffff821115610761576107606106cb565b5b61076a82610640565b9050602081019050919050565b600061078a61078584610746565b61072b565b9050828152602081018484840111156107a6576107a56106c6565b5b6107b1848285610616565b509392505050565b600082601f8301126107ce576107cd6106c1565b5b81516107de848260208601610777565b91505092915050565b6000602082840312156107fd576107fc610552565b5b600082015167ffffffffffffffff81111561081b5761081a610557565b5b610827848285016107b9565b91505092915050565b6000819050919050565b61084381610830565b811461084e57600080fd5b50565b6000815190506108608161083a565b92915050565b60006020828403121561087c5761087b610552565b5b600061088a84828501610851565b91505092915050565b600081905092915050565b7f554e4b5f00000000000000000000000000000000000000000000000000000000600082015250565b60006108d4600483610893565b91506108df8261089e565b600482019050919050565b60006108f5826105fa565b6108ff8185610893565b935061090f818560208601610616565b80840191505092915050565b6000610926826108c7565b915061093282846108ea565b915081905092915050565b6000819050919050565b7f4e487b7100000000000000000000000000000000000000000000000000000000600052601160045260246000fd5b60006109818261093d565b915061098c8361093d565b92508282039050818111156109a4576109a3610947565b5b92915050565b60006109b58261093d565b91506109c08361093d565b92508282026109ce8161093d565b915082820484148315176109e5576109e4610947565b5b5092915050565b60008160011c9050919050565b6000808291508390505b6001851115610a4357808604811115610a1f57610a1e610947565b5b6001851615610a2e5780820291505b8081029050610a3c856109ec565b9450610a03565b94509492505050565b600082610a5c5760019050610b18565b81610a6a5760009050610b18565b8160018114610a805760028114610a8a57610ab9565b6001915050610b18565b60ff841115610a9c57610a9b610947565b5b8360020a915084821115610ab357610ab2610947565b5b50610b18565b5060208310610133831016604e8410600b8410161715610aee5782820a905083811115610ae957610ae8610947565b5b610b18565b610afb84848460016109f9565b92509050818404811115610b1257610b11610947565b5b81810290505b9392505050565b6000610b2a8261093d565b9150610b358361093d565b9250610b627fffffffffffffffffffffffffffffffffffffffffffffffffffffffffffffffff8484610a4c565b905092915050565b7f4e487b7100000000000000000000000000000000000000000000000000000000600052601260045260246000fd5b6000610ba48261093d565b9150610baf8361093d565b925082610bbf57610bbe610b6a565b5b828204905092915050565b600060ff82169050919050565b6000610be282610bca565b9150610bed83610bca565b925082610bfd57610bfc610b6a565b5b828204905092915050565b6000610c1382610bca565b9150610c1e83610bca565b9250828202610c2c81610bca565b9150808214610c3e57610c3d610947565b5b5092915050565b6000610c5082610bca565b9150610c5b83610bca565b9250828203905060ff811115610c7457610c73610947565b5b92915050565b7f4e487b7100000000000000000000000000000000000000000000000000000000600052603260045260246000fd5b6000610cb48261093d565b9150610cbf8361093d565b9250828201905080821115610cd757610cd6610947565b5b92915050565b6000610ce882610bca565b915060ff8203610cfb57610cfa610947565b5b600182019050919050565b6000610d1182610bca565b9150610d1c83610bca565b9250828201905060ff811115610d3557610d34610947565b5b9291505056fea264697066735822122052a6d69c70a5c82bd2ab3d132605467e8149c864f988793107ae30604af8409764736f6c63430008190033","linkReferences":{}},"methodIdentifiers":{"syncNames(address,address)":"3cfaefd9"},"id":0}