{"abi":[{"type":"constructor","inputs":[{"name":"pools","type":"address[]","internalType":"address[]"},{"name":"dexType","type":"uint8","internalType":"enum V3DataSync.DexType"}],"stateMutability":"nonpayable"},{"type":"function","name":"PANCAKESWAP","inputs":[],"outputs":[{"name":"","type":"uint8","internalType":"enum V3DataSync.DexType"}],"stateMutability":"view"},{"type":"function","name":"UNISWAP","inputs":[],"outputs":[{"name":"","type":"uint8","internalType":"enum V3DataSync.DexType"}],"stateMutability":"view"}],"bytecode":{"object":"0x608060405234801561001057600080fd5b506040516119453803806119458339818101604052810190610032919061110c565b6000825167ffffffffffffffff81111561004f5761004e610f46565b5b60405190808252806020026020018201604052801561008857816020015b610075610e44565b81526020019060019003908161006d5790505b50905060005b8351811015610de25760008482815181106100ac576100ab611168565b5b602002602001015190506100c581610e1160201b60201c565b156100d05750610dd7565b6100d8610e44565b81816000019073ffffffffffffffffffffffffffffffffffffffff16908173ffffffffffffffffffffffffffffffffffffffff16815250506000600181111561012457610123611197565b5b85600181111561013757610136611197565b5b036102935760008290508073ffffffffffffffffffffffffffffffffffffffff16630dfe16816040518163ffffffff1660e01b8152600401602060405180830381865afa15801561018c573d6000803e3d6000fd5b505050506040513d601f19601f820116820180604052508101906101b091906111c6565b826020019073ffffffffffffffffffffffffffffffffffffffff16908173ffffffffffffffffffffffffffffffffffffffff16815250508073ffffffffffffffffffffffffffffffffffffffff1663d21220a76040518163ffffffff1660e01b8152600401602060405180830381865afa158015610232573d6000803e3d6000fd5b505050506040513d601f19601f8201168201806040525081019061025691906111c6565b826060019073ffffffffffffffffffffffffffffffffffffffff16908173ffffffffffffffffffffffffffffffffffffffff16815250505061041d565b6001808111156102a6576102a5611197565b5b8560018111156102b9576102b8611197565b5b036104155760008290508073ffffffffffffffffffffffffffffffffffffffff16630dfe16816040518163ffffffff1660e01b8152600401602060405180830381865afa15801561030e573d6000803e3d6000fd5b505050506040513d601f19601f8201168201806040525081019061033291906111c6565b826020019073ffffffffffffffffffffffffffffffffffffffff16908173ffffffffffffffffffffffffffffffffffffffff16815250508073ffffffffffffffffffffffffffffffffffffffff1663d21220a76040518163ffffffff1660e01b8152600401602060405180830381865afa1580156103b4573d6000803e3d6000fd5b505050506040513d601f19601f820116820180604052508101906103d891906111c6565b826060019073ffffffffffffffffffffffffffffffffffffffff16908173ffffffffffffffffffffffffffffffffffffffff16815250505061041c565b5050610dd7565b5b6104308160200151610e1160201b60201c565b1561043c575050610dd7565b61044f8160600151610e1160201b60201c565b1561045b575050610dd7565b600080826020015173ffffffffffffffffffffffffffffffffffffffff16614e206040516024016040516020818303038152906040527f313ce567000000000000000000000000000000000000000000000000000000007bffffffffffffffffffffffffffffffffffffffffffffffffffffffff19166020820180517bffffffffffffffffffffffffffffffffffffffffffffffffffffffff838183161783525050505060405161050c9190611264565b60006040518083038160008787f1925050503d806000811461054a576040519150601f19603f3d011682016040523d82523d6000602084013e61054f565b606091505b509150915081156105c057600060208251036105b0578180602001905181019061057991906112b1565b9050600081148061058a575060ff81115b15610599575050505050610dd7565b80846040019060ff16908160ff16815250506105ba565b5050505050610dd7565b506105c9565b50505050610dd7565b600080846060015173ffffffffffffffffffffffffffffffffffffffff16614e206040516024016040516020818303038152906040527f313ce567000000000000000000000000000000000000000000000000000000007bffffffffffffffffffffffffffffffffffffffffffffffffffffffff19166020820180517bffffffffffffffffffffffffffffffffffffffffffffffffffffffff838183161783525050505060405161067a9190611264565b60006040518083038160008787f1925050503d80600081146106b8576040519150601f19603f3d011682016040523d82523d6000602084013e6106bd565b606091505b50915091508115610732576000602082510361072057818060200190518101906106e791906112b1565b905060008114806106f8575060ff81115b156107095750505050505050610dd7565b80866080019060ff16908160ff168152505061072c565b50505050505050610dd7565b5061073d565b505050505050610dd7565b6000600181111561075157610750611197565b5b89600181111561076457610763611197565b5b03610a795760008690506000808273ffffffffffffffffffffffffffffffffffffffff16633850c7bd6040518163ffffffff1660e01b815260040160e060405180830381865afa1580156107bc573d6000803e3d6000fd5b505050506040513d601f19601f820116820180604052508101906107e091906113ee565b50505050509150915060008373ffffffffffffffffffffffffffffffffffffffff1663f30dba93836040518263ffffffff1660e01b8152600401610824919061149f565b61010060405180830381865afa158015610842573d6000803e3d6000fd5b505050506040513d601f19601f8201168201806040525081019061086691906115b0565b5050505050509150508373ffffffffffffffffffffffffffffffffffffffff16631a6865026040518163ffffffff1660e01b8152600401602060405180830381865afa1580156108ba573d6000803e3d6000fd5b505050506040513d601f19601f820116820180604052508101906108de9190611666565b8960a001906fffffffffffffffffffffffffffffffff1690816fffffffffffffffffffffffffffffffff16815250508373ffffffffffffffffffffffffffffffffffffffff1663d0c93a7c6040518163ffffffff1660e01b8152600401602060405180830381865afa158015610958573d6000803e3d6000fd5b505050506040513d601f19601f8201168201806040525081019061097c9190611693565b89610100019060020b908160020b815250508373ffffffffffffffffffffffffffffffffffffffff1663ddca3f436040518163ffffffff1660e01b8152600401602060405180830381865afa1580156109d9573d6000803e3d6000fd5b505050506040513d601f19601f820116820180604052508101906109fd91906116fb565b89610120019062ffffff16908162ffffff1681525050828960c0019073ffffffffffffffffffffffffffffffffffffffff16908173ffffffffffffffffffffffffffffffffffffffff1681525050818960e0019060020b908160020b8152505080896101400190600f0b9081600f0b8152505050505050610db1565b600180811115610a8c57610a8b611197565b5b896001811115610a9f57610a9e611197565b5b03610db05760008690506000808273ffffffffffffffffffffffffffffffffffffffff16633850c7bd6040518163ffffffff1660e01b815260040160e060405180830381865afa158015610af7573d6000803e3d6000fd5b505050506040513d601f19601f82011682018060405250810190610b1b91906113ee565b50505050509150915060008373ffffffffffffffffffffffffffffffffffffffff1663f30dba93836040518263ffffffff1660e01b8152600401610b5f919061149f565b61010060405180830381865afa158015610b7d573d6000803e3d6000fd5b505050506040513d601f19601f82011682018060405250810190610ba191906115b0565b5050505050509150508373ffffffffffffffffffffffffffffffffffffffff16631a6865026040518163ffffffff1660e01b8152600401602060405180830381865afa158015610bf5573d6000803e3d6000fd5b505050506040513d601f19601f82011682018060405250810190610c199190611666565b8960a001906fffffffffffffffffffffffffffffffff1690816fffffffffffffffffffffffffffffffff16815250508373ffffffffffffffffffffffffffffffffffffffff1663d0c93a7c6040518163ffffffff1660e01b8152600401602060405180830381865afa158015610c93573d6000803e3d6000fd5b505050506040513d601f19601f82011682018060405250810190610cb79190611693565b89610100019060020b908160020b815250508373ffffffffffffffffffffffffffffffffffffffff1663ddca3f436040518163ffffffff1660e01b8152600401602060405180830381865afa158015610d14573d6000803e3d6000fd5b505050506040513d601f19601f82011682018060405250810190610d3891906116fb565b89610120019062ffffff16908162ffffff1681525050828960c0019073ffffffffffffffffffffffffffffffffffffffff16908173ffffffffffffffffffffffffffffffffffffffff1681525050818960e0019060020b908160020b8152505080896101400190600f0b9081600f0b81525050505050505b5b84888881518110610dc557610dc4611168565b5b60200260200101819052505050505050505b80600101905061008e565b50600081604051602001610df69190611922565b60405160208183030381529060405290506020810180590381f35b6000808273ffffffffffffffffffffffffffffffffffffffff163b03610e3a5760019050610e3f565b600090505b919050565b604051806101600160405280600073ffffffffffffffffffffffffffffffffffffffff168152602001600073ffffffffffffffffffffffffffffffffffffffff168152602001600060ff168152602001600073ffffffffffffffffffffffffffffffffffffffff168152602001600060ff16815260200160006fffffffffffffffffffffffffffffffff168152602001600073ffffffffffffffffffffffffffffffffffffffff168152602001600060020b8152602001600060020b8152602001600062ffffff1681526020016000600f0b81525090565b6000604051905090565b600080fd5b600080fd5b600080fd5b6000601f19601f8301169050919050565b7f4e487b7100000000000000000000000000000000000000000000000000000000600052604160045260246000fd5b610f7e82610f35565b810181811067ffffffffffffffff82111715610f9d57610f9c610f46565b5b80604052505050565b6000610fb0610f1c565b9050610fbc8282610f75565b919050565b600067ffffffffffffffff821115610fdc57610fdb610f46565b5b602082029050602081019050919050565b600080fd5b600073ffffffffffffffffffffffffffffffffffffffff82169050919050565b600061101d82610ff2565b9050919050565b61102d81611012565b811461103857600080fd5b50565b60008151905061104a81611024565b92915050565b600061106361105e84610fc1565b610fa6565b9050808382526020820190506020840283018581111561108657611085610fed565b5b835b818110156110af578061109b888261103b565b845260208401935050602081019050611088565b5050509392505050565b600082601f8301126110ce576110cd610f30565b5b81516110de848260208601611050565b91505092915050565b600281106110f457600080fd5b50565b600081519050611106816110e7565b92915050565b6000806040838503121561112357611122610f26565b5b600083015167ffffffffffffffff81111561114157611140610f2b565b5b61114d858286016110b9565b925050602061115e858286016110f7565b9150509250929050565b7f4e487b7100000000000000000000000000000000000000000000000000000000600052603260045260246000fd5b7f4e487b7100000000000000000000000000000000000000000000000000000000600052602160045260246000fd5b6000602082840312156111dc576111db610f26565b5b60006111ea8482850161103b565b91505092915050565b600081519050919050565b600081905092915050565b60005b8381101561122757808201518184015260208101905061120c565b60008484015250505050565b600061123e826111f3565b61124881856111fe565b9350611258818560208601611209565b80840191505092915050565b60006112708284611233565b915081905092915050565b6000819050919050565b61128e8161127b565b811461129957600080fd5b50565b6000815190506112ab81611285565b92915050565b6000602082840312156112c7576112c6610f26565b5b60006112d58482850161129c565b91505092915050565b6112e781610ff2565b81146112f257600080fd5b50565b600081519050611304816112de565b92915050565b60008160020b9050919050565b6113208161130a565b811461132b57600080fd5b50565b60008151905061133d81611317565b92915050565b600061ffff82169050919050565b61135a81611343565b811461136557600080fd5b50565b60008151905061137781611351565b92915050565b600060ff82169050919050565b6113938161137d565b811461139e57600080fd5b50565b6000815190506113b08161138a565b92915050565b60008115159050919050565b6113cb816113b6565b81146113d657600080fd5b50565b6000815190506113e8816113c2565b92915050565b600080600080600080600060e0888a03121561140d5761140c610f26565b5b600061141b8a828b016112f5565b975050602061142c8a828b0161132e565b965050604061143d8a828b01611368565b955050606061144e8a828b01611368565b945050608061145f8a828b01611368565b93505060a06114708a828b016113a1565b92505060c06114818a828b016113d9565b91505092959891949750929550565b6114998161130a565b82525050565b60006020820190506114b46000830184611490565b92915050565b60006fffffffffffffffffffffffffffffffff82169050919050565b6114df816114ba565b81146114ea57600080fd5b50565b6000815190506114fc816114d6565b92915050565b600081600f0b9050919050565b61151881611502565b811461152357600080fd5b50565b6000815190506115358161150f565b92915050565b60008160060b9050919050565b6115518161153b565b811461155c57600080fd5b50565b60008151905061156e81611548565b92915050565b600063ffffffff82169050919050565b61158d81611574565b811461159857600080fd5b50565b6000815190506115aa81611584565b92915050565b600080600080600080600080610100898b0312156115d1576115d0610f26565b5b60006115df8b828c016114ed565b98505060206115f08b828c01611526565b97505060406116018b828c0161129c565b96505060606116128b828c0161129c565b95505060806116238b828c0161155f565b94505060a06116348b828c016112f5565b93505060c06116458b828c0161159b565b92505060e06116568b828c016113d9565b9150509295985092959890939650565b60006020828403121561167c5761167b610f26565b5b600061168a848285016114ed565b91505092915050565b6000602082840312156116a9576116a8610f26565b5b60006116b78482850161132e565b91505092915050565b600062ffffff82169050919050565b6116d8816116c0565b81146116e357600080fd5b50565b6000815190506116f5816116cf565b92915050565b60006020828403121561171157611710610f26565b5b600061171f848285016116e6565b91505092915050565b600081519050919050565b600082825260208201905092915050565b6000819050602082019050919050565b61175d81611012565b82525050565b61176c8161137d565b82525050565b61177b816114ba565b82525050565b61178a81610ff2565b82525050565b6117998161130a565b82525050565b6117a8816116c0565b82525050565b6117b781611502565b82525050565b610160820160008201516117d46000850182611754565b5060208201516117e76020850182611754565b5060408201516117fa6040850182611763565b50606082015161180d6060850182611754565b5060808201516118206080850182611763565b5060a082015161183360a0850182611772565b5060c082015161184660c0850182611781565b5060e082015161185960e0850182611790565b5061010082015161186e610100850182611790565b5061012082015161188361012085018261179f565b506101408201516118986101408501826117ae565b50505050565b60006118aa83836117bd565b6101608301905092915050565b6000602082019050919050565b60006118cf82611728565b6118d98185611733565b93506118e483611744565b8060005b838110156119155781516118fc888261189e565b9750611907836118b7565b9250506001810190506118e8565b5085935050505092915050565b6000602082019050818103600083015261193c81846118c4565b90509291505056fe","linkReferences":{}},"deployedBytecode":{"object":"0x6080604052348015600f57600080fd5b506004361060325760003560e01c806304626335146037578063c745d9e7146051575b600080fd5b603d606b565b6040516048919060e3565b60405180910390f35b60576070565b6040516062919060e3565b60405180910390f35b600181565b600081565b7f4e487b7100000000000000000000000000000000000000000000000000000000600052602160045260246000fd5b6002811060b25760b16075565b5b50565b600081905060c18260a4565b919050565b600060cf8260b5565b9050919050565b60dd8160c6565b82525050565b600060208201905060f6600083018460d6565b9291505056fea2646970667358221220b1878bb6ce0e72a907552a31213ed53bf15a55904d63f7fb66950a3f8e36963964736f6c63430008190033","linkReferences":{}},"methodIdentifiers":{"PANCAKESWAP()":"04626335","UNISWAP()":"c745d9e7"},"id":3}